{
  "contractName": "Decredex",
  "abi": [
    {
      "inputs": [
        {
          "internalType": "address",
          "name": "_institution",
          "type": "address"
        },
        {
          "internalType": "address",
          "name": "_student1",
          "type": "address"
        },
        {
          "internalType": "address",
          "name": "_student2",
          "type": "address"
        },
        {
          "internalType": "address",
          "name": "_student3",
          "type": "address"
        }
      ],
      "stateMutability": "nonpayable",
      "type": "constructor"
    },
    {
      "anonymous": false,
      "inputs": [
        {
          "indexed": false,
          "internalType": "string",
          "name": "code",
          "type": "string"
        }
      ],
      "name": "DECREDEX_COURSE_REGISTERED",
      "type": "event"
    },
    {
      "anonymous": false,
      "inputs": [
        {
          "indexed": false,
          "internalType": "string",
          "name": "code",
          "type": "string"
        },
        {
          "indexed": false,
          "internalType": "address",
          "name": "student",
          "type": "address"
        }
      ],
      "name": "DECREDEX_STUDENT_COMPLETED",
      "type": "event"
    },
    {
      "anonymous": false,
      "inputs": [
        {
          "indexed": false,
          "internalType": "string",
          "name": "code",
          "type": "string"
        },
        {
          "indexed": false,
          "internalType": "address",
          "name": "student",
          "type": "address"
        }
      ],
      "name": "DECREDEX_STUDENT_ENROLLED",
      "type": "event"
    },
    {
      "inputs": [
        {
          "internalType": "string",
          "name": "_code",
          "type": "string"
        },
        {
          "internalType": "string",
          "name": "_name",
          "type": "string"
        },
        {
          "internalType": "uint256",
          "name": "_credits",
          "type": "uint256"
        }
      ],
      "name": "registerCourse",
      "outputs": [
        {
          "internalType": "bool",
          "name": "",
          "type": "bool"
        }
      ],
      "stateMutability": "nonpayable",
      "type": "function"
    },
    {
      "inputs": [
        {
          "internalType": "string",
          "name": "_code",
          "type": "string"
        }
      ],
      "name": "queryCourse",
      "outputs": [
        {
          "internalType": "string",
          "name": "",
          "type": "string"
        },
        {
          "internalType": "string",
          "name": "",
          "type": "string"
        },
        {
          "internalType": "address",
          "name": "",
          "type": "address"
        },
        {
          "internalType": "uint256",
          "name": "",
          "type": "uint256"
        },
        {
          "internalType": "address[]",
          "name": "",
          "type": "address[]"
        },
        {
          "internalType": "address[]",
          "name": "",
          "type": "address[]"
        }
      ],
      "stateMutability": "view",
      "type": "function",
      "constant": true
    },
    {
      "inputs": [
        {
          "internalType": "address",
          "name": "_student",
          "type": "address"
        }
      ],
      "name": "queryStudent",
      "outputs": [
        {
          "internalType": "address",
          "name": "",
          "type": "address"
        },
        {
          "internalType": "string",
          "name": "",
          "type": "string"
        },
        {
          "internalType": "string[]",
          "name": "",
          "type": "string[]"
        },
        {
          "internalType": "string[]",
          "name": "",
          "type": "string[]"
        }
      ],
      "stateMutability": "view",
      "type": "function",
      "constant": true
    },
    {
      "inputs": [
        {
          "internalType": "address",
          "name": "_student",
          "type": "address"
        },
        {
          "internalType": "string",
          "name": "_code",
          "type": "string"
        }
      ],
      "name": "enrollStudent",
      "outputs": [
        {
          "internalType": "bool",
          "name": "",
          "type": "bool"
        }
      ],
      "stateMutability": "nonpayable",
      "type": "function"
    },
    {
      "inputs": [
        {
          "internalType": "address",
          "name": "_student",
          "type": "address"
        },
        {
          "internalType": "string",
          "name": "_code",
          "type": "string"
        }
      ],
      "name": "completeStudent",
      "outputs": [
        {
          "internalType": "bool",
          "name": "",
          "type": "bool"
        }
      ],
      "stateMutability": "nonpayable",
      "type": "function"
    }
  ],
  "bytecode": "0x60806040523480156200001157600080fd5b5060405162001bc638038062001bc68339810160408190526200003491620003c3565b600060016040516200004f9062108d1160ea1b815260030190565b908152604080519182900360209081018320805460ff191660019081178255848401909352600380855262108d1160ea1b9490920193845293506200009992918401919062000300565b506040805180820190915260148082527f426c6f636b636861696e20342064756d6d6965730000000000000000000000006020909201918252620000e291600284019162000300565b506003810180546001600160a01b0319166001600160a01b038716179055600060048201556040805165544b4e31303160d01b808252600160068084018290528451938490036026018420805460ff19168317815584860190955280845260209093019182526200015892908401919062000300565b5060408051808201909152600e8082526d546f6b656e6f6d6963732031303160901b60209092019182526200019291600284019162000300565b506003810180546001600160a01b0319166001600160a01b03888116919091179091556102ee600483015585166000818152602081815260409182902080546001600160a81b0319166101009094029390931760019081178455825180840190935260098084526853747564656e74203160b81b939092019283526200021c929084019162000300565b506001600160a01b0385166000818152602081815260409182902080546101009094026001600160a81b03199094169390931760019081178455825180840190935260098084526829ba3ab232b73a101960b91b9390920192835262000286929084019162000300565b506001600160a01b0385166000818152602081815260409182902080546101009094026001600160a81b03199094169390931760019081178455825180840190935260098084526853747564656e74203360b81b93909201928352620002f0929084019162000300565b505050505050505050506200045c565b8280546200030e906200041f565b90600052602060002090601f0160209004810192826200033257600085556200037d565b82601f106200034d57805160ff19168380011785556200037d565b828001600101855582156200037d579182015b828111156200037d57825182559160200191906001019062000360565b506200038b9291506200038f565b5090565b5b808211156200038b576000815560010162000390565b80516001600160a01b0381168114620003be57600080fd5b919050565b60008060008060808587031215620003d9578384fd5b620003e485620003a6565b9350620003f460208601620003a6565b92506200040460408601620003a6565b91506200041460608601620003a6565b905092959194509250565b600181811c908216806200043457607f821691505b602082108114156200045657634e487b7160e01b600052602260045260246000fd5b50919050565b61175a806200046c6000396000f3fe608060405234801561001057600080fd5b50600436106100575760003560e01c8063261d822f1461005c5780633f5af443146100845780635c263e61146100a7578063a1276f7c146100ba578063cb5692d2146100df575b600080fd5b61006f61006a36600461123f565b6100f2565b60405190151581526020015b60405180910390f35b61009761009236600461121e565b6103d0565b60405161007b94939291906114aa565b61006f6100b536600461123f565b61080e565b6100cd6100c836600461128b565b610b1f565b60405161007b9695949392919061153c565b61006f6100ed3660046112c6565b610fc8565b600060018260405161010491906113f3565b9081526040519081900360200190205460ff166101645760405162461bcd60e51b815260206004820152601960248201527810dbdd5c9cd9481b5d5cdd081899481c9959da5cdd195c9959603a1b60448201526064015b60405180910390fd5b60018260405161017491906113f3565b90815260405190819003602001902060030154336001600160a01b03909116146101b05760405162461bcd60e51b815260040161015b906115ac565b6001826040516101c091906113f3565b90815260408051602092819003830190206001600160a01b0386166000908152600790910190925290205460ff161561020b5760405162461bcd60e51b815260040161015b90611600565b600080846001600160a01b03166001600160a01b031681526020019081526020016000206004018260405161024091906113f3565b9081526040519081900360200190205460ff16156102705760405162461bcd60e51b815260040161015b90611600565b600060018360405161028291906113f3565b90815260408051602092819003830190206001600160a01b03871660008181528085529283206005830180546001808201835591865295852090950180546001600160a01b03191690921790915560068201805492955090939290916102e9908490611643565b90915550506001600160a01b038516600090815260078301602090815260408220805460ff191660019081179091556002840180549182018155835291819020865161033c9391909101918701906110e2565b5060018160030160008282546103529190611643565b925050819055506001816004018560405161036d91906113f3565b908152604051908190036020018120805492151560ff19909316929092179091557f9db05f4bfc0a8281b205c21bdbe9f32efc878f668d6092d4bb429d3dad4370ad906103bd9086908890611512565b60405180910390a1506001949350505050565b6001600160a01b0381166000908152602081905260408120546060908190819060ff1661043f5760405162461bcd60e51b815260206004820152601a60248201527f517565726965642073747564656e74206d757374206578697374000000000000604482015260640161015b565b6001600160a01b038516600090815260208190526040812060030154819067ffffffffffffffff81111561048357634e487b7160e01b600052604160045260246000fd5b6040519080825280602002602001820160405280156104b657816020015b60608152602001906001900390816104a15790505b50905060005b6001600160a01b03881660009081526020819052604090206002015481101561066a576001600160a01b03881660009081526020819052604090206002810180546004909201918390811061052157634e487b7160e01b600052603260045260246000fd5b90600052602060002001604051610538919061140f565b9081526040519081900360200190205460ff1615610658576001600160a01b038816600090815260208190526040902060020180548290811061058b57634e487b7160e01b600052603260045260246000fd5b9060005260206000200180546105a0906116a2565b80601f01602080910402602001604051908101604052809291908181526020018280546105cc906116a2565b80156106195780601f106105ee57610100808354040283529160200191610619565b820191906000526020600020905b8154815290600101906020018083116105fc57829003601f168201915b505050505082848151811061063e57634e487b7160e01b600052603260045260246000fd5b60200260200101819052508280610654906116dd565b9350505b80610662816116dd565b9150506104bc565b506001600160a01b03808816600090815260208190526040902080546001820180546101009092049093169291849160059091019083906106aa906116a2565b80601f01602080910402602001604051908101604052809291908181526020018280546106d6906116a2565b80156107235780601f106106f857610100808354040283529160200191610723565b820191906000526020600020905b81548152906001019060200180831161070657829003601f168201915b5050505050925080805480602002602001604051908101604052809291908181526020016000905b828210156107f757838290600052602060002001805461076a906116a2565b80601f0160208091040260200160405190810160405280929190818152602001828054610796906116a2565b80156107e35780601f106107b8576101008083540402835291602001916107e3565b820191906000526020600020905b8154815290600101906020018083116107c657829003601f168201915b50505050508152602001906001019061074b565b505050509050955095509550955050509193509193565b600060018260405161082091906113f3565b9081526040519081900360200190205460ff1661087b5760405162461bcd60e51b815260206004820152601960248201527810dbdd5c9cd9481b5d5cdd081899481c9959da5cdd195c9959603a1b604482015260640161015b565b60018260405161088b91906113f3565b90815260405190819003602001902060030154336001600160a01b03909116146108c75760405162461bcd60e51b815260040161015b906115ac565b6001826040516108d791906113f3565b90815260408051602092819003830190206001600160a01b0386166000908152600790910190925290205460ff166109515760405162461bcd60e51b815260206004820181905260248201527f53747564656e74206d75737420616c726561647920626520656e726f6c6c6564604482015260640161015b565b600080846001600160a01b03166001600160a01b031681526020019081526020016000206004018260405161098691906113f3565b9081526040519081900360200190205460ff166109e55760405162461bcd60e51b815260206004820181905260248201527f53747564656e74206d75737420616c726561647920626520656e726f6c6c6564604482015260640161015b565b60006001836040516109f791906113f3565b908152602001604051809103902090506001816006016000828254610a1c919061165b565b90915550506001600160a01b03841660008181526007830160209081526040808320805460ff19169055600885018054600181810183559185528385200180546001600160a01b031916861790559383529082905281206003810180549193929091610a8990849061165b565b9250508190555060008160040185604051610aa491906113f3565b90815260405160209181900382019020805460ff1916921515929092179091556005820180546001810182556000918252908290208651610aed939190920191908701906110e2565b507f30dd83f0214bbed6767051ec174129dce2c092a7f1e91c147bfad9780661d7d984866040516103bd929190611512565b606080600080606080600187604051610b3891906113f3565b9081526040519081900360200190205460ff16610ba15760405162461bcd60e51b815260206004820152602160248201527f5175657269656420636f75727365206d757374206265207265676973746572656044820152601960fa1b606482015260840161015b565b600080600189604051610bb491906113f3565b90815260200160405180910390206006015467ffffffffffffffff811115610bec57634e487b7160e01b600052604160045260246000fd5b604051908082528060200260200182016040528015610c15578160200160208202803683370190505b50905060005b60018a604051610c2b91906113f3565b90815260405190819003602001902060050154811015610d8b5760018a604051610c5591906113f3565b9081526020016040518091039020600701600060018c604051610c7891906113f3565b90815260200160405180910390206005018381548110610ca857634e487b7160e01b600052603260045260246000fd5b60009182526020808320909101546001600160a01b0316835282019290925260400190205460ff1615610d795760018a604051610ce591906113f3565b90815260200160405180910390206005018181548110610d1557634e487b7160e01b600052603260045260246000fd5b9060005260206000200160009054906101000a90046001600160a01b0316828481518110610d5357634e487b7160e01b600052603260045260246000fd5b6001600160a01b039092166020928302919091019091015282610d75816116dd565b9350505b80610d83816116dd565b915050610c1b565b50600189604051610d9c91906113f3565b908152602001604051809103902060010160018a604051610dbd91906113f3565b908152602001604051809103902060020160018b604051610dde91906113f3565b908152604051908190036020018120600301546001600160a01b031690600190610e09908e906113f3565b9081526020016040518091039020600401548460018e604051610e2c91906113f3565b9081526020016040518091039020600801858054610e49906116a2565b80601f0160208091040260200160405190810160405280929190818152602001828054610e75906116a2565b8015610ec25780601f10610e9757610100808354040283529160200191610ec2565b820191906000526020600020905b815481529060010190602001808311610ea557829003601f168201915b50505050509550848054610ed5906116a2565b80601f0160208091040260200160405190810160405280929190818152602001828054610f01906116a2565b8015610f4e5780601f10610f2357610100808354040283529160200191610f4e565b820191906000526020600020905b815481529060010190602001808311610f3157829003601f168201915b5050505050945080805480602002602001604051908101604052809291908181526020018280548015610faa57602002820191906000526020600020905b81546001600160a01b03168152600190910190602001808311610f8c575b50505050509050975097509750975097509750505091939550919395565b6000600184604051610fda91906113f3565b9081526040519081900360200190205460ff161561103a5760405162461bcd60e51b815260206004820152601960248201527f436f7572736520616c7265616479207265676973746572656400000000000000604482015260640161015b565b600060018560405161104c91906113f3565b908152604051602091819003820190208054600160ff199091168117825587519193506110809290840191908801906110e2565b50835161109690600283019060208701906110e2565b506003810180546001600160a01b03191633179055600481018390556040517faafcba99abbaff46338fe2691345476e6632bf17863ab2b1ae6d606342d67a0e906103bd9087906114ff565b8280546110ee906116a2565b90600052602060002090601f0160209004810192826111105760008555611156565b82601f1061112957805160ff1916838001178555611156565b82800160010185558215611156579182015b8281111561115657825182559160200191906001019061113b565b50611162929150611166565b5090565b5b808211156111625760008155600101611167565b80356001600160a01b038116811461119257600080fd5b919050565b600082601f8301126111a7578081fd5b813567ffffffffffffffff808211156111c2576111c261170e565b604051601f8301601f19908116603f011681019082821181831017156111ea576111ea61170e565b81604052838152866020858801011115611202578485fd5b8360208701602083013792830160200193909352509392505050565b60006020828403121561122f578081fd5b6112388261117b565b9392505050565b60008060408385031215611251578081fd5b61125a8361117b565b9150602083013567ffffffffffffffff811115611275578182fd5b61128185828601611197565b9150509250929050565b60006020828403121561129c578081fd5b813567ffffffffffffffff8111156112b2578182fd5b6112be84828501611197565b949350505050565b6000806000606084860312156112da578081fd5b833567ffffffffffffffff808211156112f1578283fd5b6112fd87838801611197565b94506020860135915080821115611312578283fd5b5061131f86828701611197565b925050604084013590509250925092565b6000815180845260208085019450808401835b838110156113685781516001600160a01b031687529582019590820190600101611343565b509495945050505050565b600081518084526020808501808196508360051b81019150828601855b858110156113ba5782840389526113a88483516113c7565b98850198935090840190600101611390565b5091979650505050505050565b600081518084526113df816020860160208601611672565b601f01601f19169290920160200192915050565b60008251611405818460208701611672565b9190910192915050565b600080835482600182811c91508083168061142b57607f831692505b602080841082141561144b57634e487b7160e01b87526022600452602487fd5b81801561145f57600181146114705761149c565b60ff1986168952848901965061149c565b60008a815260209020885b868110156114945781548b82015290850190830161147b565b505084890196505b509498975050505050505050565b6001600160a01b03851681526080602082018190526000906114ce908301866113c7565b82810360408401526114e08186611373565b905082810360608401526114f48185611373565b979650505050505050565b60208152600061123860208301846113c7565b60408152600061152560408301856113c7565b905060018060a01b03831660208301529392505050565b60c08152600061154f60c08301896113c7565b828103602084015261156181896113c7565b6001600160a01b0388166040850152606084018790528381036080850152905061158b8186611330565b905082810360a084015261159f8185611330565b9998505050505050505050565b60208082526034908201527f4f6e6c79206f776e657220696e737469747574696f6e2063616e20656e726f6c6040820152736c2073747564656e747320746f20636f7572736560601b606082015260800190565b60208082526023908201527f53747564656e742063616e206e6f7420616c726561647920626520656e726f6c6040820152621b195960ea1b606082015260800190565b60008219821115611656576116566116f8565b500190565b60008282101561166d5761166d6116f8565b500390565b60005b8381101561168d578181015183820152602001611675565b8381111561169c576000848401525b50505050565b600181811c908216806116b657607f821691505b602082108114156116d757634e487b7160e01b600052602260045260246000fd5b50919050565b60006000198214156116f1576116f16116f8565b5060010190565b634e487b7160e01b600052601160045260246000fd5b634e487b7160e01b600052604160045260246000fdfea2646970667358221220d4fe2acb57bd8af6be92bd03fb52387976b59ec924889a15a998319ee83f677964736f6c63430008040033",
  "immutableReferences": {},
  "source": "pragma solidity >=0.4.22 <0.9.0;\n\n\n\ncontract Decredex {\n\n  event DECREDEX_COURSE_REGISTERED      (string code);\n  event DECREDEX_STUDENT_ENROLLED       (string code, address student);\n  event DECREDEX_STUDENT_COMPLETED      (string code, address student);\n\n\n\n  struct Student {\n    bool exist;\n    address id;\n    string name;\n    string[] courses;\n    uint256 enrolledCourses;\n    mapping(string => bool) enrollments; // Course code the student is enrolled in\n    string[] completions; // Course code the student has completed\n  }\n  mapping(address => Student) private students; // All students registry\n\n  struct Course {\n    bool exist;\n    string code;\n    string name;\n    address institution;\n    uint256 credits; // Integer representation of two decimal float (divide by 100 in frontend)\n    address[] students;\n    uint256 enrolledStudents;\n    mapping(address => bool) enrollments;\n    address[] completions; // Students that have completed this course\n  }\n  mapping(string => Course) private courses; // All courses registry\n\n\n\n  constructor(\n    address _institution,\n    address _student1,\n    address _student2,\n    address _student3\n  ) {\n    Course storage course1 = courses[\"B4D\"];\n    course1.exist = true;\n    course1.code = \"B4D\";\n    course1.name = \"Blockchain 4 dummies\";\n    course1.institution = _institution;\n    course1.credits = 0;\n\n    Course storage course2 = courses[\"TKN101\"];\n    course2.exist = true;\n    course2.code = \"TKN101\";\n    course2.name = \"Tokenomics 101\";\n    course2.institution = _institution;\n    course2.credits = 750;\n\n    Student storage newStudent1 = students[_student1];\n    newStudent1.exist = true;\n    newStudent1.id = _student1;\n    newStudent1.name = \"Student 1\";\n\n    Student storage newStudent2 = students[_student2];\n    newStudent2.exist = true;\n    newStudent2.id = _student2;\n    newStudent2.name = \"Student 2\";\n\n    Student storage newStudent3 = students[_student3];\n    newStudent3.exist = true;\n    newStudent3.id = _student3;\n    newStudent3.name = \"Student 3\";\n  }\n\n\n\n  function registerCourse(\n    string memory _code,\n    string memory _name,\n    uint256 _credits // Integer representation of two decimal float (multiplied by 100 in frontend)\n  )\n  public\n  returns(bool) {\n    require(!courses[_code].exist, \"Course already registered\"); // Make sure course with code not already registered\n\n    Course storage newCourse = courses[_code];\n    newCourse.exist = true;\n    newCourse.code = _code;\n    newCourse.name = _name;\n    newCourse.institution = msg.sender;\n    newCourse.credits = _credits;\n\n    emit DECREDEX_COURSE_REGISTERED(_code);\n    return(true);\n  }\n\n  function queryCourse(\n    string memory _code\n  )\n  public view\n  returns(string memory, string memory, address, uint256, address[] memory, address[] memory) {\n    require(courses[_code].exist, \"Queried course must be registered\"); // Make sure course with code not already registered\n\n    uint256 index = 0;\n    address[] memory _enrolledStudents = new address[](courses[_code].enrolledStudents);\n    for (uint i = 0; i < courses[_code].students.length; i++) {\n      if(courses[_code].enrollments[courses[_code].students[i]]) {\n        _enrolledStudents[index] = courses[_code].students[i];\n        index++;\n      }\n    }\n\n    return(\n      courses[_code].code,\n      courses[_code].name,\n      courses[_code].institution,\n      courses[_code].credits,\n      _enrolledStudents,\n      courses[_code].completions\n    );\n  }\n\n  function queryStudent(\n    address _student\n  )\n  public view\n  returns(address, string memory, string[] memory, string[] memory) {\n    require(students[_student].exist, \"Queried student must exist\"); // Make sure course with code not already registered\n\n    uint256 index = 0;\n    string[] memory _enrolledCourses = new string[](students[_student].enrolledCourses);\n    for (uint i = 0; i < students[_student].courses.length; i++) {\n      if(students[_student].enrollments[students[_student].courses[i]]) {\n        _enrolledCourses[index] = students[_student].courses[i];\n        index++;\n      }\n    }\n\n    return(\n      students[_student].id,\n      students[_student].name,\n      _enrolledCourses,\n      students[_student].completions\n    );\n  }\n\n\n\n  function enrollStudent(\n    address _student,\n    string memory _code\n  )\n  public\n  returns(bool) {\n    require(courses[_code].exist, \"Course must be registered\"); // Make sure course with code not already registered\n    require(msg.sender == courses[_code].institution, \"Only owner institution can enroll students to course\");\n    require(!courses[_code].enrollments[_student], \"Student can not already be enrolled\");\n    require(!students[_student].enrollments[_code], \"Student can not already be enrolled\");\n\n    Course storage course = courses[_code];\n    Student storage student = students[_student];\n\n    course.students.push(_student);\n    course.enrolledStudents += 1;\n    course.enrollments[_student] = true;\n\n    student.courses.push(_code);\n    student.enrolledCourses += 1;\n    student.enrollments[_code] = true;\n\n    emit DECREDEX_STUDENT_ENROLLED(_code, _student);\n    return(true);\n  }\n\n  function completeStudent(\n    address _student,\n    string memory _code\n  )\n  public\n  returns(bool) {\n    require(courses[_code].exist, \"Course must be registered\"); // Make sure course with code not already registered\n    require(msg.sender == courses[_code].institution, \"Only owner institution can enroll students to course\");\n    require(courses[_code].enrollments[_student], \"Student must already be enrolled\");\n    require(students[_student].enrollments[_code], \"Student must already be enrolled\");\n\n    Course storage course = courses[_code];\n    course.enrolledStudents -= 1;\n    course.enrollments[_student] = false;\n    course.completions.push(_student);\n\n    Student storage student = students[_student];\n    student.enrolledCourses -= 1;\n    student.enrollments[_code] = false;\n    student.completions.push(_code);\n\n    emit DECREDEX_STUDENT_COMPLETED(_code, _student);\n    return(true);\n  }\n}\n",
  "sourcePath": "/home/hsquare/Tore/personal/decredex-blockchain/contracts/Decredex.sol",
  "compiler": {
    "name": "solc",
    "version": "0.8.4+commit.c7e474f2.Emscripten.clang"
  },
  "schemaVersion": "3.4.1",
  "updatedAt": "2021-05-24T15:39:17.278Z",
  "networkType": "ethereum",
  "devdoc": {
    "kind": "dev",
    "methods": {},
    "version": 1
  },
  "userdoc": {
    "kind": "user",
    "methods": {},
    "version": 1
  }
}